{
  "_format": "hh-sol-artifact-1",
  "contractName": "ProductDetails",
  "sourceName": "contracts/smart_contract.sol",
  "abi": [
    {
      "anonymous": false,
      "inputs": [
        {
          "indexed": false,
          "internalType": "string",
          "name": "_distributorname",
          "type": "string"
        },
        {
          "indexed": false,
          "internalType": "string",
          "name": "_distributingdate",
          "type": "string"
        },
        {
          "indexed": false,
          "internalType": "string",
          "name": "_productid",
          "type": "string"
        },
        {
          "indexed": false,
          "internalType": "string",
          "name": "_productname",
          "type": "string"
        },
        {
          "indexed": false,
          "internalType": "string",
          "name": "_addressofvendor",
          "type": "string"
        },
        {
          "indexed": false,
          "internalType": "string",
          "name": "_tovendorname",
          "type": "string"
        }
      ],
      "name": "DistributeAdded",
      "type": "event"
    },
    {
      "anonymous": false,
      "inputs": [
        {
          "indexed": false,
          "internalType": "string",
          "name": "_manufacturername",
          "type": "string"
        },
        {
          "indexed": false,
          "internalType": "string",
          "name": "_manufacturingdate",
          "type": "string"
        },
        {
          "indexed": false,
          "internalType": "string",
          "name": "_productid",
          "type": "string"
        },
        {
          "indexed": false,
          "internalType": "string",
          "name": "_productname",
          "type": "string"
        },
        {
          "indexed": false,
          "internalType": "string",
          "name": "_productdetails",
          "type": "string"
        },
        {
          "indexed": false,
          "internalType": "string",
          "name": "_totransportername",
          "type": "string"
        }
      ],
      "name": "ProductAdded",
      "type": "event"
    },
    {
      "anonymous": false,
      "inputs": [
        {
          "indexed": false,
          "internalType": "string",
          "name": "_tranportername",
          "type": "string"
        },
        {
          "indexed": false,
          "internalType": "string",
          "name": "_tranportingdate",
          "type": "string"
        },
        {
          "indexed": false,
          "internalType": "string",
          "name": "_productid",
          "type": "string"
        },
        {
          "indexed": false,
          "internalType": "string",
          "name": "_productname",
          "type": "string"
        },
        {
          "indexed": false,
          "internalType": "string",
          "name": "_transportingaddress",
          "type": "string"
        },
        {
          "indexed": false,
          "internalType": "string",
          "name": "_todistributorname",
          "type": "string"
        }
      ],
      "name": "TransportAdded",
      "type": "event"
    },
    {
      "anonymous": false,
      "inputs": [
        {
          "indexed": false,
          "internalType": "string",
          "name": "_vendorname",
          "type": "string"
        },
        {
          "indexed": false,
          "internalType": "string",
          "name": "_vendorlocation",
          "type": "string"
        },
        {
          "indexed": false,
          "internalType": "string",
          "name": "_productid",
          "type": "string"
        },
        {
          "indexed": false,
          "internalType": "string",
          "name": "_productname",
          "type": "string"
        }
      ],
      "name": "VendorAdded",
      "type": "event"
    },
    {
      "inputs": [
        {
          "internalType": "string",
          "name": "_distributorname",
          "type": "string"
        },
        {
          "internalType": "string",
          "name": "_distributingdate",
          "type": "string"
        },
        {
          "internalType": "string",
          "name": "_productid",
          "type": "string"
        },
        {
          "internalType": "string",
          "name": "_productname",
          "type": "string"
        },
        {
          "internalType": "string",
          "name": "_addressofvendor",
          "type": "string"
        },
        {
          "internalType": "string",
          "name": "_tovendorname",
          "type": "string"
        }
      ],
      "name": "addDistribute",
      "outputs": [
        {
          "internalType": "bytes32",
          "name": "_distributorHash",
          "type": "bytes32"
        }
      ],
      "stateMutability": "nonpayable",
      "type": "function"
    },
    {
      "inputs": [
        {
          "internalType": "string",
          "name": "_manufacturername",
          "type": "string"
        },
        {
          "internalType": "string",
          "name": "_manufacturingdate",
          "type": "string"
        },
        {
          "internalType": "string",
          "name": "_productid",
          "type": "string"
        },
        {
          "internalType": "string",
          "name": "_productname",
          "type": "string"
        },
        {
          "internalType": "string",
          "name": "_productdetails",
          "type": "string"
        },
        {
          "internalType": "string",
          "name": "_totransportername",
          "type": "string"
        }
      ],
      "name": "addProduct",
      "outputs": [
        {
          "internalType": "bytes32",
          "name": "_manufacturerHash",
          "type": "bytes32"
        }
      ],
      "stateMutability": "nonpayable",
      "type": "function"
    },
    {
      "inputs": [
        {
          "internalType": "string",
          "name": "_tranportername",
          "type": "string"
        },
        {
          "internalType": "string",
          "name": "_tranportingdate",
          "type": "string"
        },
        {
          "internalType": "string",
          "name": "_productid",
          "type": "string"
        },
        {
          "internalType": "string",
          "name": "_productname",
          "type": "string"
        },
        {
          "internalType": "string",
          "name": "_transportingaddress",
          "type": "string"
        },
        {
          "internalType": "string",
          "name": "_todistributorname",
          "type": "string"
        }
      ],
      "name": "addTranport",
      "outputs": [
        {
          "internalType": "bytes32",
          "name": "_transporterHash",
          "type": "bytes32"
        }
      ],
      "stateMutability": "nonpayable",
      "type": "function"
    },
    {
      "inputs": [
        {
          "internalType": "string",
          "name": "_vendororname",
          "type": "string"
        },
        {
          "internalType": "string",
          "name": "_vendorlocation",
          "type": "string"
        },
        {
          "internalType": "string",
          "name": "_productid",
          "type": "string"
        },
        {
          "internalType": "string",
          "name": "_productname",
          "type": "string"
        }
      ],
      "name": "addVendor",
      "outputs": [
        {
          "internalType": "bytes32",
          "name": "_vendorHash",
          "type": "bytes32"
        }
      ],
      "stateMutability": "nonpayable",
      "type": "function"
    },
    {
      "inputs": [
        {
          "internalType": "string",
          "name": "_productid",
          "type": "string"
        }
      ],
      "name": "checkgenuine",
      "outputs": [
        {
          "internalType": "bool",
          "name": "",
          "type": "bool"
        }
      ],
      "stateMutability": "nonpayable",
      "type": "function"
    },
    {
      "inputs": [],
      "name": "distributeCount",
      "outputs": [
        {
          "internalType": "uint256",
          "name": "",
          "type": "uint256"
        }
      ],
      "stateMutability": "view",
      "type": "function"
    },
    {
      "inputs": [],
      "name": "distributor",
      "outputs": [
        {
          "internalType": "address",
          "name": "",
          "type": "address"
        }
      ],
      "stateMutability": "view",
      "type": "function"
    },
    {
      "inputs": [],
      "name": "getDistributeDetails",
      "outputs": [
        {
          "components": [
            {
              "internalType": "string",
              "name": "distributorname",
              "type": "string"
            },
            {
              "internalType": "string",
              "name": "distributingdate",
              "type": "string"
            },
            {
              "internalType": "string",
              "name": "productid",
              "type": "string"
            },
            {
              "internalType": "string",
              "name": "productname",
              "type": "string"
            },
            {
              "internalType": "string",
              "name": "addressofvendor",
              "type": "string"
            },
            {
              "internalType": "string",
              "name": "tovendorname",
              "type": "string"
            }
          ],
          "internalType": "struct ProductDetails.Distribute_Product[]",
          "name": "",
          "type": "tuple[]"
        }
      ],
      "stateMutability": "view",
      "type": "function"
    },
    {
      "inputs": [],
      "name": "getProductDetails",
      "outputs": [
        {
          "components": [
            {
              "internalType": "string",
              "name": "manufacturername",
              "type": "string"
            },
            {
              "internalType": "string",
              "name": "manufacturingdate",
              "type": "string"
            },
            {
              "internalType": "string",
              "name": "productid",
              "type": "string"
            },
            {
              "internalType": "string",
              "name": "productname",
              "type": "string"
            },
            {
              "internalType": "string",
              "name": "productdetails",
              "type": "string"
            },
            {
              "internalType": "string",
              "name": "totransportername",
              "type": "string"
            }
          ],
          "internalType": "struct ProductDetails.New_Product[]",
          "name": "",
          "type": "tuple[]"
        }
      ],
      "stateMutability": "view",
      "type": "function"
    },
    {
      "inputs": [],
      "name": "getTransportDetails",
      "outputs": [
        {
          "components": [
            {
              "internalType": "string",
              "name": "transportername",
              "type": "string"
            },
            {
              "internalType": "string",
              "name": "transportingdate",
              "type": "string"
            },
            {
              "internalType": "string",
              "name": "productid",
              "type": "string"
            },
            {
              "internalType": "string",
              "name": "productname",
              "type": "string"
            },
            {
              "internalType": "string",
              "name": "tranportingaddress",
              "type": "string"
            },
            {
              "internalType": "string",
              "name": "todistributorname",
              "type": "string"
            }
          ],
          "internalType": "struct ProductDetails.Transport_Product[]",
          "name": "",
          "type": "tuple[]"
        }
      ],
      "stateMutability": "view",
      "type": "function"
    },
    {
      "inputs": [],
      "name": "getVendorDetails",
      "outputs": [
        {
          "components": [
            {
              "internalType": "string",
              "name": "vendorname",
              "type": "string"
            },
            {
              "internalType": "string",
              "name": "vendorlocation",
              "type": "string"
            },
            {
              "internalType": "string",
              "name": "productid",
              "type": "string"
            },
            {
              "internalType": "string",
              "name": "productname",
              "type": "string"
            }
          ],
          "internalType": "struct ProductDetails.Vendor_Product[]",
          "name": "",
          "type": "tuple[]"
        }
      ],
      "stateMutability": "view",
      "type": "function"
    },
    {
      "inputs": [],
      "name": "isDistributed",
      "outputs": [
        {
          "internalType": "bool",
          "name": "",
          "type": "bool"
        }
      ],
      "stateMutability": "view",
      "type": "function"
    },
    {
      "inputs": [],
      "name": "isGenuine",
      "outputs": [
        {
          "internalType": "bool",
          "name": "",
          "type": "bool"
        }
      ],
      "stateMutability": "view",
      "type": "function"
    },
    {
      "inputs": [],
      "name": "isTransported",
      "outputs": [
        {
          "internalType": "bool",
          "name": "",
          "type": "bool"
        }
      ],
      "stateMutability": "view",
      "type": "function"
    },
    {
      "inputs": [],
      "name": "isVendored",
      "outputs": [
        {
          "internalType": "bool",
          "name": "",
          "type": "bool"
        }
      ],
      "stateMutability": "view",
      "type": "function"
    },
    {
      "inputs": [],
      "name": "manufacturer",
      "outputs": [
        {
          "internalType": "address",
          "name": "",
          "type": "address"
        }
      ],
      "stateMutability": "view",
      "type": "function"
    },
    {
      "inputs": [],
      "name": "productCount",
      "outputs": [
        {
          "internalType": "uint256",
          "name": "",
          "type": "uint256"
        }
      ],
      "stateMutability": "view",
      "type": "function"
    },
    {
      "inputs": [],
      "name": "transportCount",
      "outputs": [
        {
          "internalType": "uint256",
          "name": "",
          "type": "uint256"
        }
      ],
      "stateMutability": "view",
      "type": "function"
    },
    {
      "inputs": [],
      "name": "transporter",
      "outputs": [
        {
          "internalType": "address",
          "name": "",
          "type": "address"
        }
      ],
      "stateMutability": "view",
      "type": "function"
    },
    {
      "inputs": [],
      "name": "vendor",
      "outputs": [
        {
          "internalType": "address",
          "name": "",
          "type": "address"
        }
      ],
      "stateMutability": "view",
      "type": "function"
    },
    {
      "inputs": [],
      "name": "vendorCount",
      "outputs": [
        {
          "internalType": "uint256",
          "name": "",
          "type": "uint256"
        }
      ],
      "stateMutability": "view",
      "type": "function"
    }
  ],
  "bytecode": "0x608060405234801561001057600080fd5b5061257a806100206000396000f3fe608060405234801561001057600080fd5b50600436106101375760003560e01c806399ca5619116100b8578063bfe109281161007c578063bfe1092814610281578063d9a6ea9314610294578063e0f6ef87146102a7578063e42b0212146102b0578063eb4dd957146102c3578063f677cf0d146102d657600080fd5b806399ca5619146102285780639d9600071461023c578063b13c499f14610250578063b56559b214610259578063bb49d8fa1461026c57600080fd5b806356fac88b116100ff57806356fac88b146101c057806374754282146101e45780638858287b146101f75780638c57039014610200578063923e328a1461021557600080fd5b80630dff37711461013c5780631385a6f21461015857806316036f221461018357806323bc839b146101985780632b8678b4146101ad575b600080fd5b610145600f5481565b6040519081526020015b60405180910390f35b60025461016b906001600160a01b031681565b6040516001600160a01b03909116815260200161014f565b61018b6102ea565b60405161014f9190611e30565b6101a0610748565b60405161014f9190611e92565b6101456101bb366004611f8a565b610ba0565b6003546101d490600160b01b900460ff1681565b604051901515815260200161014f565b60005461016b906001600160a01b031681565b61014560105481565b610208610d8f565b60405161014f919061207f565b61014561022336600461213b565b6110b5565b6003546101d490600160a01b900460ff1681565b6003546101d490600160b81b900460ff1681565b610145600e5481565b610145610267366004611f8a565b611264565b61027461142f565b60405161014f91906121e8565b60035461016b906001600160a01b031681565b6101456102a2366004611f8a565b611887565b610145600d5481565b60015461016b906001600160a01b031681565b6101d46102d136600461223d565b611a75565b6003546101d490600160a81b900460ff1681565b60606000600f5467ffffffffffffffff81111561030957610309611ee7565b60405190808252806020026020018201604052801561037357816020015b6103606040518060c001604052806060815260200160608152602001606081526020016060815260200160608152602001606081525090565b8152602001906001900390816103275790505b50905060015b600f548111610742576000818152600a602052604090819020815160c081019092528054829082906103aa9061227a565b80601f01602080910402602001604051908101604052809291908181526020018280546103d69061227a565b80156104235780601f106103f857610100808354040283529160200191610423565b820191906000526020600020905b81548152906001019060200180831161040657829003601f168201915b5050505050815260200160018201805461043c9061227a565b80601f01602080910402602001604051908101604052809291908181526020018280546104689061227a565b80156104b55780601f1061048a576101008083540402835291602001916104b5565b820191906000526020600020905b81548152906001019060200180831161049857829003601f168201915b505050505081526020016002820180546104ce9061227a565b80601f01602080910402602001604051908101604052809291908181526020018280546104fa9061227a565b80156105475780601f1061051c57610100808354040283529160200191610547565b820191906000526020600020905b81548152906001019060200180831161052a57829003601f168201915b505050505081526020016003820180546105609061227a565b80601f016020809104026020016040519081016040528092919081815260200182805461058c9061227a565b80156105d95780601f106105ae576101008083540402835291602001916105d9565b820191906000526020600020905b8154815290600101906020018083116105bc57829003601f168201915b505050505081526020016004820180546105f29061227a565b80601f016020809104026020016040519081016040528092919081815260200182805461061e9061227a565b801561066b5780601f106106405761010080835404028352916020019161066b565b820191906000526020600020905b81548152906001019060200180831161064e57829003601f168201915b505050505081526020016005820180546106849061227a565b80601f01602080910402602001604051908101604052809291908181526020018280546106b09061227a565b80156106fd5780601f106106d2576101008083540402835291602001916106fd565b820191906000526020600020905b8154815290600101906020018083116106e057829003601f168201915b5050505050815250508260018361071491906122c4565b81518110610724576107246122dd565b6020026020010181905250808061073a906122f3565b915050610379565b50919050565b60606000600d5467ffffffffffffffff81111561076757610767611ee7565b6040519080825280602002602001820160405280156107d157816020015b6107be6040518060c001604052806060815260200160608152602001606081526020016060815260200160608152602001606081525090565b8152602001906001900390816107855790505b50905060015b600d5481116107425760008181526008602052604090819020815160c081019092528054829082906108089061227a565b80601f01602080910402602001604051908101604052809291908181526020018280546108349061227a565b80156108815780601f1061085657610100808354040283529160200191610881565b820191906000526020600020905b81548152906001019060200180831161086457829003601f168201915b5050505050815260200160018201805461089a9061227a565b80601f01602080910402602001604051908101604052809291908181526020018280546108c69061227a565b80156109135780601f106108e857610100808354040283529160200191610913565b820191906000526020600020905b8154815290600101906020018083116108f657829003601f168201915b5050505050815260200160028201805461092c9061227a565b80601f01602080910402602001604051908101604052809291908181526020018280546109589061227a565b80156109a55780601f1061097a576101008083540402835291602001916109a5565b820191906000526020600020905b81548152906001019060200180831161098857829003601f168201915b505050505081526020016003820180546109be9061227a565b80601f01602080910402602001604051908101604052809291908181526020018280546109ea9061227a565b8015610a375780601f10610a0c57610100808354040283529160200191610a37565b820191906000526020600020905b815481529060010190602001808311610a1a57829003601f168201915b50505050508152602001600482018054610a509061227a565b80601f0160208091040260200160405190810160405280929190818152602001828054610a7c9061227a565b8015610ac95780601f10610a9e57610100808354040283529160200191610ac9565b820191906000526020600020905b815481529060010190602001808311610aac57829003601f168201915b50505050508152602001600582018054610ae29061227a565b80601f0160208091040260200160405190810160405280929190818152602001828054610b0e9061227a565b8015610b5b5780601f10610b3057610100808354040283529160200191610b5b565b820191906000526020600020905b815481529060010190602001808311610b3e57829003601f168201915b50505050508152505082600183610b7291906122c4565b81518110610b8257610b826122dd565b60200260200101819052508080610b98906122f3565b9150506107d7565b600f805460009182610bb1836122f3565b90915550506040805160c0810182528881526020808201899052818301889052606082018790526080820186905260a08201859052600f546000908152600a9091529190912081518190610c05908261235b565b5060208201516001820190610c1a908261235b565b5060408201516002820190610c2f908261235b565b5060608201516003820190610c44908261235b565b5060808201516004820190610c59908261235b565b5060a08201516005820190610c6e908261235b565b509050507fe5ab42ce4ca17bedfe8e33713b2c09c0b4517a399e914e5b8baaf9dea3ccffbb878787878787604051610cab9695949392919061241b565b60405180910390a16003805461ffff60a81b1916600160a81b179055604051600c90610cd890879061249d565b9081526040519081900360209081018220546005819055600292610d00920190815260200190565b60408051601f1981840301815290829052610d1a9161249d565b602060405180830381855afa158015610d37573d6000803e3d6000fd5b5050506040513d601f19601f82011682018060405250810190610d5a91906124b9565b600655600554604051600c90610d7190889061249d565b90815260405190819003602001902055506006549695505050505050565b6060600060105467ffffffffffffffff811115610dae57610dae611ee7565b604051908082528060200260200182016040528015610e0a57816020015b610df76040518060800160405280606081526020016060815260200160608152602001606081525090565b815260200190600190039081610dcc5790505b50905060015b6010548111610742576000818152600b602052604090819020815160808101909252805482908290610e419061227a565b80601f0160208091040260200160405190810160405280929190818152602001828054610e6d9061227a565b8015610eba5780601f10610e8f57610100808354040283529160200191610eba565b820191906000526020600020905b815481529060010190602001808311610e9d57829003601f168201915b50505050508152602001600182018054610ed39061227a565b80601f0160208091040260200160405190810160405280929190818152602001828054610eff9061227a565b8015610f4c5780601f10610f2157610100808354040283529160200191610f4c565b820191906000526020600020905b815481529060010190602001808311610f2f57829003601f168201915b50505050508152602001600282018054610f659061227a565b80601f0160208091040260200160405190810160405280929190818152602001828054610f919061227a565b8015610fde5780601f10610fb357610100808354040283529160200191610fde565b820191906000526020600020905b815481529060010190602001808311610fc157829003601f168201915b50505050508152602001600382018054610ff79061227a565b80601f01602080910402602001604051908101604052809291908181526020018280546110239061227a565b80156110705780601f1061104557610100808354040283529160200191611070565b820191906000526020600020905b81548152906001019060200180831161105357829003601f168201915b5050505050815250508260018361108791906122c4565b81518110611097576110976122dd565b602002602001018190525080806110ad906122f3565b915050610e10565b60108054600091826110c6836122f3565b9091555050604080516080810182528681526020808201879052818301869052606082018590526010546000908152600b909152919091208151819061110c908261235b565b5060208201516001820190611121908261235b565b5060408201516002820190611136908261235b565b506060820151600382019061114b908261235b565b509050507f018399e2622c73c393c3e6efba8da79bcff4f9daf4322ed31485428ad06451888585858560405161118494939291906124d2565b60405180910390a16003805460ff60b01b1916600160b01b179055604051600c906111b090859061249d565b90815260405190819003602090810182205460068190556002926111d8920190815260200190565b60408051601f19818403018152908290526111f29161249d565b602060405180830381855afa15801561120f573d6000803e3d6000fd5b5050506040513d601f19601f8201168201806040525081019061123291906124b9565b6007819055604051600c9061124890869061249d565b9081526040519081900360200190205550600754949350505050565b600d805460009182611275836122f3565b90915550506040805160c0810182528881526020808201899052818301889052606082018790526080820186905260a08201859052600d546000908152600890915291909120815181906112c9908261235b565b50602082015160018201906112de908261235b565b50604082015160028201906112f3908261235b565b5060608201516003820190611308908261235b565b506080820151600482019061131d908261235b565b5060a08201516005820190611332908261235b565b509050507fd40fc2301e664eed186cc10ed05d66e469b316fff19525cf62b08e722b558f3f87878787878760405161136f9695949392919061241b565b60405180910390a16003805463ff0000ff60a01b1916600160b81b1790556040516002906113a190879060200161252a565b60408051601f19818403018152908290526113bb9161249d565b602060405180830381855afa1580156113d8573d6000803e3d6000fd5b5050506040513d601f19601f820116820180604052508101906113fb91906124b9565b6004819055604051600c9061141190889061249d565b90815260405190819003602001902055506004549695505050505050565b60606000600e5467ffffffffffffffff81111561144e5761144e611ee7565b6040519080825280602002602001820160405280156114b857816020015b6114a56040518060c001604052806060815260200160608152602001606081526020016060815260200160608152602001606081525090565b81526020019060019003908161146c5790505b50905060015b600e5481116107425760008181526009602052604090819020815160c081019092528054829082906114ef9061227a565b80601f016020809104026020016040519081016040528092919081815260200182805461151b9061227a565b80156115685780601f1061153d57610100808354040283529160200191611568565b820191906000526020600020905b81548152906001019060200180831161154b57829003601f168201915b505050505081526020016001820180546115819061227a565b80601f01602080910402602001604051908101604052809291908181526020018280546115ad9061227a565b80156115fa5780601f106115cf576101008083540402835291602001916115fa565b820191906000526020600020905b8154815290600101906020018083116115dd57829003601f168201915b505050505081526020016002820180546116139061227a565b80601f016020809104026020016040519081016040528092919081815260200182805461163f9061227a565b801561168c5780601f106116615761010080835404028352916020019161168c565b820191906000526020600020905b81548152906001019060200180831161166f57829003601f168201915b505050505081526020016003820180546116a59061227a565b80601f01602080910402602001604051908101604052809291908181526020018280546116d19061227a565b801561171e5780601f106116f35761010080835404028352916020019161171e565b820191906000526020600020905b81548152906001019060200180831161170157829003601f168201915b505050505081526020016004820180546117379061227a565b80601f01602080910402602001604051908101604052809291908181526020018280546117639061227a565b80156117b05780601f10611785576101008083540402835291602001916117b0565b820191906000526020600020905b81548152906001019060200180831161179357829003601f168201915b505050505081526020016005820180546117c99061227a565b80601f01602080910402602001604051908101604052809291908181526020018280546117f59061227a565b80156118425780601f1061181757610100808354040283529160200191611842565b820191906000526020600020905b81548152906001019060200180831161182557829003601f168201915b5050505050815250508260018361185991906122c4565b81518110611869576118696122dd565b6020026020010181905250808061187f906122f3565b9150506114be565b600e805460009182611898836122f3565b90915550506040805160c0810182528881526020808201899052818301889052606082018790526080820186905260a08201859052600e546000908152600990915291909120815181906118ec908261235b565b5060208201516001820190611901908261235b565b5060408201516002820190611916908261235b565b506060820151600382019061192b908261235b565b5060808201516004820190611940908261235b565b5060a08201516005820190611955908261235b565b509050507fea528fcaab1f435de45937715ce7d8b21e90a970320389aa77e1d3fd0b4b24748787878787876040516119929695949392919061241b565b60405180910390a16003805461ffff60a01b1916600160a01b179055604051600c906119bf90879061249d565b90815260405190819003602090810182205460048190556002926119e7920190815260200190565b60408051601f1981840301815290829052611a019161249d565b602060405180830381855afa158015611a1e573d6000803e3d6000fd5b5050506040513d601f19601f82011682018060405250810190611a4191906124b9565b6005819055604051600c90611a5790889061249d565b90815260405190819003602001902055506005549695505050505050565b60008082604051602001611a89919061252a565b60405160208183030381529060405290506000600282604051602001611aaf919061249d565b60408051601f1981840301815290829052611ac99161249d565b602060405180830381855afa158015611ae6573d6000803e3d6000fd5b5050506040513d601f19601f82011682018060405250810190611b0991906124b9565b90506000600282604051602001611b2291815260200190565b60408051601f1981840301815290829052611b3c9161249d565b602060405180830381855afa158015611b59573d6000803e3d6000fd5b5050506040513d601f19601f82011682018060405250810190611b7c91906124b9565b90506000600282604051602001611b9591815260200190565b60408051601f1981840301815290829052611baf9161249d565b602060405180830381855afa158015611bcc573d6000803e3d6000fd5b5050506040513d601f19601f82011682018060405250810190611bef91906124b9565b90506000600282604051602001611c0891815260200190565b60408051601f1981840301815290829052611c229161249d565b602060405180830381855afa158015611c3f573d6000803e3d6000fd5b5050506040513d601f19601f82011682018060405250810190611c6291906124b9565b90506000600c88604051611c76919061249d565b90815260200160405180910390205490506000600282604051602001611c9e91815260200190565b60408051601f1981840301815290829052611cb89161249d565b602060405180830381855afa158015611cd5573d6000803e3d6000fd5b5050506040513d601f19601f82011682018060405250810190611cf891906124b9565b9050808303611d19576003805460ff60b81b1916600160b81b179055611d27565b6003805460ff60b81b191690555b5050600354600160b81b900460ff16979650505050505050565b60005b83811015611d5c578181015183820152602001611d44565b50506000910152565b60008151808452611d7d816020860160208601611d41565b601f01601f19169290920160200192915050565b6000815160c08452611da660c0850182611d65565b905060208301518482036020860152611dbf8282611d65565b91505060408301518482036040860152611dd98282611d65565b91505060608301518482036060860152611df38282611d65565b91505060808301518482036080860152611e0d8282611d65565b91505060a083015184820360a0860152611e278282611d65565b95945050505050565b6000602080830181845280855180835260408601915060408160051b870101925083870160005b82811015611e8557603f19888603018452611e73858351611d91565b94509285019290850190600101611e57565b5092979650505050505050565b6000602080830181845280855180835260408601915060408160051b870101925083870160005b82811015611e8557603f19888603018452611ed5858351611d91565b94509285019290850190600101611eb9565b634e487b7160e01b600052604160045260246000fd5b600082601f830112611f0e57600080fd5b813567ffffffffffffffff80821115611f2957611f29611ee7565b604051601f8301601f19908116603f01168101908282118183101715611f5157611f51611ee7565b81604052838152866020858801011115611f6a57600080fd5b836020870160208301376000602085830101528094505050505092915050565b60008060008060008060c08789031215611fa357600080fd5b863567ffffffffffffffff80821115611fbb57600080fd5b611fc78a838b01611efd565b97506020890135915080821115611fdd57600080fd5b611fe98a838b01611efd565b96506040890135915080821115611fff57600080fd5b61200b8a838b01611efd565b9550606089013591508082111561202157600080fd5b61202d8a838b01611efd565b9450608089013591508082111561204357600080fd5b61204f8a838b01611efd565b935060a089013591508082111561206557600080fd5b5061207289828a01611efd565b9150509295509295509295565b60006020808301818452808551808352604092508286019150828160051b87010184880160005b8381101561212d57603f198984030185528151608081518186526120cc82870182611d65565b915050888201518582038a8701526120e48282611d65565b91505087820151858203898701526120fc8282611d65565b915050606080830151925085820381870152506121198183611d65565b9689019694505050908601906001016120a6565b509098975050505050505050565b6000806000806080858703121561215157600080fd5b843567ffffffffffffffff8082111561216957600080fd5b61217588838901611efd565b9550602087013591508082111561218b57600080fd5b61219788838901611efd565b945060408701359150808211156121ad57600080fd5b6121b988838901611efd565b935060608701359150808211156121cf57600080fd5b506121dc87828801611efd565b91505092959194509250565b6000602080830181845280855180835260408601915060408160051b870101925083870160005b82811015611e8557603f1988860301845261222b858351611d91565b9450928501929085019060010161220f565b60006020828403121561224f57600080fd5b813567ffffffffffffffff81111561226657600080fd5b61227284828501611efd565b949350505050565b600181811c9082168061228e57607f821691505b60208210810361074257634e487b7160e01b600052602260045260246000fd5b634e487b7160e01b600052601160045260246000fd5b818103818111156122d7576122d76122ae565b92915050565b634e487b7160e01b600052603260045260246000fd5b600060018201612305576123056122ae565b5060010190565b601f82111561235657600081815260208120601f850160051c810160208610156123335750805b601f850160051c820191505b818110156123525782815560010161233f565b5050505b505050565b815167ffffffffffffffff81111561237557612375611ee7565b61238981612383845461227a565b8461230c565b602080601f8311600181146123be57600084156123a65750858301515b600019600386901b1c1916600185901b178555612352565b600085815260208120601f198616915b828110156123ed578886015182559484019460019091019084016123ce565b508582101561240b5787850151600019600388901b60f8161c191681555b5050505050600190811b01905550565b60c08152600061242e60c0830189611d65565b82810360208401526124408189611d65565b905082810360408401526124548188611d65565b905082810360608401526124688187611d65565b9050828103608084015261247c8186611d65565b905082810360a08401526124908185611d65565b9998505050505050505050565b600082516124af818460208701611d41565b9190910192915050565b6000602082840312156124cb57600080fd5b5051919050565b6080815260006124e56080830187611d65565b82810360208401526124f78187611d65565b9050828103604084015261250b8186611d65565b9050828103606084015261251f8185611d65565b979650505050505050565b60208152600061253d6020830184611d65565b939250505056fea264697066735822122017f3490d544d1dfd10ec9dec95a000d0439a1539b45aac1d649d5b89f4e3cc0a64736f6c63430008120033",
  "linkReferences": {},
  "deployedLinkReferences": {}
}